:020000040000FA
:1000000055282F20052036200800831603130930B9
:10001000850020308600003087008312031385019D
:100020008601870108000030A000831203139900A5
:1000300083160313981820149818A01498182015E4
:100040009818A015981820169818A0169818201718
:100050009818A01720088312031387000800831242
:1000600003179E01831203179F01080083120313D5
:100070008B130B13831603138C12831603139A012D
:10008000831603130C309900831603139B118316F8
:1000900003131815181298119816181383120313C6
:1000A00098111816181398170800012013205628C5
:02400E00D430AC
:00000001FF
